:100000000C9446000C945D000C945D000C945D0013
:100010000C945D000C945D000C945D000C945D00EC
:100020000C945D000C945D000C945D000C945D00DC
:100030000C945D000C945D000C945D000C945D00CC
:100040000C945D000C945D000C945D000C945D00BC
:100050000C945D000C945D000C945D000C945D00AC
:100060000C945D000C945D000C945D000C945D009C
:100070000C945D000C945D000C945D000C945D008C
:100080000C945D000C945D000C945D0011241FBE67
:10009000CFEFD0E4DEBFCDBF11E0A0E0B1E0E4E2FD
:1000A000F1E000E00BBF02C007900D92AE30B10747
:1000B000D9F70E9470000C9490000C940000CF932C
:1000C000C82F8A3019F48DE00E945F009091C00023
:1000D00095FFFCCFC093C60080E090E0CF910895DB
:1000E0001AB88FEF8BB98EEF84B981E085B940E003
:1000F00089B190E0880F991F53B1252F217030E00E
:10010000822B932B8634910528F406978034910531
:1001100018F003C042E001C044E045B941E0E8CF37
:04012000F894FFCF81
:0E01240000000002000000005F00000000006C
:00000001FF
