:100000000C9446000C945D000C945D000C945D0013
:100010000C945D000C945D000C945D000C945D00EC
:100020000C945D000C945D000C945D000C945D00DC
:100030000C945D000C945D000C945D000C945D00CC
:100040000C945D000C945D000C945D000C945D00BC
:100050000C945D000C945D000C945D000C945D00AC
:100060000C945D000C945D000C945D000C945D009C
:100070000C945D000C945D000C945D000C945D008C
:100080000C945D000C945D000C945D0011241FBE67
:10009000CFEFD0E4DEBFCDBF11E0A0E0B1E0E6E5F8
:1000A000F1E000E00BBF02C007900D92AE30B10747
:1000B000D9F70E9470000C94A9000C940000CF9313
:1000C000C82F8A3019F48DE00E945F009091C00023
:1000D00095FFFCCFC093C60080E090E0CF910895DB
:1000E00011B88FEF82B914B885B987B918B820B1A3
:1000F00083B198B160E090E011C030E0A901092E11
:1001000002C0440F551F0A94E2F74170640F092E94
:1001100002C0359527950A94E2F79F5F983068F3FF
:1001200030E020E011C090E0AC01022E02C0440F8C
:10013000551F0A94E2F74170340F022E02C09595C4
:1001400087950A94E2F72F5F283068F3360F38B9A5
:06015000CECFF894FFCFB2
:0E01560000000002000000005F00000000003A
:00000001FF
