:100000000C9446000C945D000C945D000C945D0013
:100010000C945D000C945D000C945D000C945D00EC
:100020000C945D000C945D000C945D000C945D00DC
:100030000C945D000C945D000C945D000C945D00CC
:100040000C945D000C945D000C945D000C945D00BC
:100050000C945D000C945D000C945D000C945D00AC
:100060000C945D000C945D000C945D000C945D009C
:100070000C945D000C945D000C945D000C945D008C
:100080000C945D000C945D000C945D0011241FBE67
:10009000CFEFD0E4DEBFCDBF11E0A0E0B1E0ECE6F1
:1000A000F1E000E00BBF02C007900D92AE30B10747
:1000B000D9F70E9470000C94B4000C940000CF9308
:1000C000C82F8A3019F48DE00E945F009091C00023
:1000D00095FFFCCFC093C60080E090E0CF910895DB
:1000E00011B88FEF82B987B918B880B1811102C0F9
:1000F00080E488B980B1813019F080B1823011F488
:1001000080E688B980B1833019F080B1843011F471
:1001100080E788B980B1853019F080B1863011F45C
:1001200088E388B980B1873031F080B1883019F028
:1001300080B1893011F48CE388B980B18A3031F014
:1001400080B18B3019F080B18C3011F48EE388B916
:1001500080B18D3031F080B18E3019F080B18F30A8
:0C01600021F68FE388B9C1CFF894FFCFDF
:0E016C0000000002000000005F000000000024
:00000001FF
