:100000000C9446000C945D000C945D000C945D0013
:100010000C945D000C945D000C945D000C945D00EC
:100020000C945D000C945D000C945D000C945D00DC
:100030000C945D000C945D000C945D000C945D00CC
:100040000C945D000C945D000C945D000C945D00BC
:100050000C945D000C945D000C945D000C945D00AC
:100060000C945D000C945D000C945D000C945D009C
:100070000C945D000C945D000C945D000C945D008C
:100080000C945D000C945D000C945D0011241FBE67
:10009000CFEFD0E4DEBFCDBF11E0A0E0B1E0E2E8F9
:1000A000F1E000E00BBF02C007900D92AE30B10747
:1000B000D9F70E9470000C94BF000C940000CF93FD
:1000C000C82F8A3019F48DE00E945F009091C00023
:1000D00095FFFCCFC093C60080E090E0CF910895DB
:1000E00011B88FEF82B987B918B880B180E488B9A8
:1000F000009902C0019B02C080E688B980B183707C
:10010000833011F0029B02C080E788B980B185700E
:10011000853021F080B18670863011F488E388B98B
:1001200080B18770873031F0039904C080B1897045
:10013000893011F48CE388B980B18A708A3041F03B
:1001400080B18B708B3021F080B18C708C3011F4C9
:100150008EE388B980B18D708D3041F080B18E70A2
:100160008E3021F080B18F708F3011F48FE388B919
:1001700080B18073803309F0B8CF479AB6CFF89436
:02018000FFCFAF
:0E01820000000002000000005F00000000000E
:00000001FF
